{
  "contractName": "Clock",
  "abi": [
    {
      "inputs": [],
      "stateMutability": "nonpayable",
      "type": "constructor"
    },
    {
      "anonymous": false,
      "inputs": [
        {
          "indexed": true,
          "internalType": "bytes32",
          "name": "id",
          "type": "bytes32"
        }
      ],
      "name": "ChainlinkCancelled",
      "type": "event"
    },
    {
      "anonymous": false,
      "inputs": [
        {
          "indexed": true,
          "internalType": "bytes32",
          "name": "id",
          "type": "bytes32"
        }
      ],
      "name": "ChainlinkFulfilled",
      "type": "event"
    },
    {
      "anonymous": false,
      "inputs": [
        {
          "indexed": true,
          "internalType": "bytes32",
          "name": "id",
          "type": "bytes32"
        }
      ],
      "name": "ChainlinkRequested",
      "type": "event"
    },
    {
      "inputs": [],
      "name": "alarmDone",
      "outputs": [
        {
          "internalType": "bool",
          "name": "",
          "type": "bool"
        }
      ],
      "stateMutability": "view",
      "type": "function",
      "constant": true
    },
    {
      "inputs": [
        {
          "internalType": "uint256",
          "name": "durationInSeconds",
          "type": "uint256"
        }
      ],
      "name": "requestAlarmClock",
      "outputs": [
        {
          "internalType": "bytes32",
          "name": "requestId",
          "type": "bytes32"
        }
      ],
      "stateMutability": "nonpayable",
      "type": "function"
    },
    {
      "inputs": [
        {
          "internalType": "bytes32",
          "name": "_requestId",
          "type": "bytes32"
        }
      ],
      "name": "fulfillAlarm",
      "outputs": [],
      "stateMutability": "nonpayable",
      "type": "function"
    },
    {
      "inputs": [],
      "name": "withdrawLink",
      "outputs": [],
      "stateMutability": "nonpayable",
      "type": "function"
    }
  ],
  "bytecode": "0x6080604052600160045534801561001557600080fd5b5061003973a36085f69e2889c224210f603d836748e7dc00886100e460201b60201c565b732f90a6d021db21e1b2a077c5a37b3c7e75d15b7e600660016101000a81548173ffffffffffffffffffffffffffffffffffffffff021916908373ffffffffffffffffffffffffffffffffffffffff1602179055507f613761623730643536316433346562343965396231363132666432653034346260078190555067016345785d8a00006008819055506000600660006101000a81548160ff021916908315150217905550610128565b80600260006101000a81548173ffffffffffffffffffffffffffffffffffffffff021916908373ffffffffffffffffffffffffffffffffffffffff16021790555050565b610fd0806101376000396000f3fe608060405234801561001057600080fd5b506004361061004c5760003560e01c80636d97c828146100515780638dc654a214610073578063b62c06aa1461007d578063ca8ca80a146100ab575b600080fd5b6100596100ed565b604051808215151515815260200191505060405180910390f35b61007b610100565b005b6100a96004803603602081101561009357600080fd5b81019080803590602001909291905050506102fa565b005b6100d7600480360360208110156100c157600080fd5b8101908080359060200190929190505050610434565b6040518082815260200191505060405180910390f35b600660009054906101000a900460ff1681565b600061010a6104d7565b90508073ffffffffffffffffffffffffffffffffffffffff1663a9059cbb338373ffffffffffffffffffffffffffffffffffffffff166370a08231306040518263ffffffff1660e01b8152600401808273ffffffffffffffffffffffffffffffffffffffff1673ffffffffffffffffffffffffffffffffffffffff16815260200191505060206040518083038186803b1580156101a657600080fd5b505afa1580156101ba573d6000803e3d6000fd5b505050506040513d60208110156101d057600080fd5b81019080805190602001909291905050506040518363ffffffff1660e01b8152600401808373ffffffffffffffffffffffffffffffffffffffff1673ffffffffffffffffffffffffffffffffffffffff16815260200182815260200192505050602060405180830381600087803b15801561024a57600080fd5b505af115801561025e573d6000803e3d6000fd5b505050506040513d602081101561027457600080fd5b81019080805190602001909291905050506102f7576040517f08c379a00000000000000000000000000000000000000000000000000000000081526004018080602001828103825260128152602001807f556e61626c6520746f207472616e73666572000000000000000000000000000081525060200191505060405180910390fd5b50565b806005600082815260200190815260200160002060009054906101000a900473ffffffffffffffffffffffffffffffffffffffff1673ffffffffffffffffffffffffffffffffffffffff163373ffffffffffffffffffffffffffffffffffffffff16146103b2576040517f08c379a0000000000000000000000000000000000000000000000000000000008152600401808060200182810382526028815260200180610f736028913960400191505060405180910390fd5b6005600082815260200190815260200160002060006101000a81549073ffffffffffffffffffffffffffffffffffffffff0219169055807f7cc135e0cebb02c3480ae5d74d377283180a2601f8f644edf7987b009316c63a60405160405180910390a26001600660006101000a81548160ff0219169083151502179055505050565b600061043e610eae565b6104526007543063b62c06aa60e01b610501565b90506104a06040518060400160405280600581526020017f756e74696c000000000000000000000000000000000000000000000000000000815250844201836105329092919063ffffffff16565b6104cf600660019054906101000a900473ffffffffffffffffffffffffffffffffffffffff1682600854610565565b915050919050565b6000600260009054906101000a900473ffffffffffffffffffffffffffffffffffffffff16905090565b610509610eae565b610511610eae565b6105288585858461081d909392919063ffffffff16565b9150509392505050565b6105498284608001516108cd90919063ffffffff16565b6105608184608001516108f290919063ffffffff16565b505050565b600030600454604051602001808373ffffffffffffffffffffffffffffffffffffffff1673ffffffffffffffffffffffffffffffffffffffff1660601b815260140182815260200192505050604051602081830303815290604052805190602001209050600454836060018181525050836005600083815260200190815260200160002060006101000a81548173ffffffffffffffffffffffffffffffffffffffff021916908373ffffffffffffffffffffffffffffffffffffffff160217905550807fb5e6e01e79f91267dc17b4e6314d5d4d03593d2ceee0fbb452b750bd70ea5af960405160405180910390a2600260009054906101000a900473ffffffffffffffffffffffffffffffffffffffff1673ffffffffffffffffffffffffffffffffffffffff16634000aea0858461069d87610902565b6040518463ffffffff1660e01b8152600401808473ffffffffffffffffffffffffffffffffffffffff1673ffffffffffffffffffffffffffffffffffffffff16815260200183815260200180602001828103825283818151815260200191508051906020019080838360005b83811015610724578082015181840152602081019050610709565b50505050905090810190601f1680156107515780820380516001836020036101000a031916815260200191505b50945050505050602060405180830381600087803b15801561077257600080fd5b505af1158015610786573d6000803e3d6000fd5b505050506040513d602081101561079c57600080fd5b8101908080519060200190929190505050610802576040517f08c379a0000000000000000000000000000000000000000000000000000000008152600401808060200182810382526023815260200180610f506023913960400191505060405180910390fd5b60016004600082825401925050819055508090509392505050565b610825610eae565b6108358560800151610100610b09565b508385600001818152505082856020019073ffffffffffffffffffffffffffffffffffffffff16908173ffffffffffffffffffffffffffffffffffffffff16815250508185604001907bffffffffffffffffffffffffffffffffffffffffffffffffffffffff191690817bffffffffffffffffffffffffffffffffffffffffffffffffffffffff191681525050849050949350505050565b6108da8260038351610b5d565b6108ed8183610ca290919063ffffffff16565b505050565b6108fe82600083610b5d565b5050565b6060600360009054906101000a900473ffffffffffffffffffffffffffffffffffffffff1673ffffffffffffffffffffffffffffffffffffffff166340429946905060e01b60008084600001518560200151866040015187606001516001896080015160000151604051602401808973ffffffffffffffffffffffffffffffffffffffff1673ffffffffffffffffffffffffffffffffffffffff1681526020018881526020018781526020018673ffffffffffffffffffffffffffffffffffffffff1673ffffffffffffffffffffffffffffffffffffffff168152602001857bffffffffffffffffffffffffffffffffffffffffffffffffffffffff19167bffffffffffffffffffffffffffffffffffffffffffffffffffffffff1916815260200184815260200183815260200180602001828103825283818151815260200191508051906020019080838360005b83811015610a6c578082015181840152602081019050610a51565b50505050905090810190601f168015610a995780820380516001836020036101000a031916815260200191505b509950505050505050505050604051602081830303815290604052907bffffffffffffffffffffffffffffffffffffffffffffffffffffffff19166020820180517bffffffffffffffffffffffffffffffffffffffffffffffffffffffff83818316178352505050509050919050565b610b11610f1b565b600060208381610b1d57fe5b0614610b365760208281610b2d57fe5b06602003820191505b81836020018181525050604051808452600081528281016020016040525082905092915050565b60178111610b8a57610b848160058460ff16901b60ff161784610cc490919063ffffffff16565b50610c9d565b60ff8111610bcc57610baf601860058460ff16901b1784610cc490919063ffffffff16565b50610bc681600185610ce49092919063ffffffff16565b50610c9c565b61ffff8111610c0f57610bf2601960058460ff16901b1784610cc490919063ffffffff16565b50610c0981600285610ce49092919063ffffffff16565b50610c9b565b63ffffffff8111610c5457610c37601a60058460ff16901b1784610cc490919063ffffffff16565b50610c4e81600485610ce49092919063ffffffff16565b50610c9a565b67ffffffffffffffff8111610c9957610c80601b60058460ff16901b1784610cc490919063ffffffff16565b50610c9781600885610ce49092919063ffffffff16565b505b5b5b5b5b505050565b610caa610f1b565b610cbc83846000015151848551610d06565b905092915050565b610ccc610f1b565b610cdc8384600001515184610dbf565b905092915050565b610cec610f1b565b610cfd848560000151518585610e0d565b90509392505050565b610d0e610f1b565b8251821115610d1c57600080fd5b84602001518285011115610d4757610d46856002610d408860200151888701610e6e565b02610e8a565b5b600080865180518760208301019350808887011115610d665787860182525b60208701925050505b60208410610d925780518252602082019150602081019050602084039350610d6f565b60006001856020036101000a03905080198251168184511681811785525050879350505050949350505050565b610dc7610f1b565b83602001518310610de457610de3846002866020015102610e8a565b5b8351805160208583010184815381861415610e00576001820183525b5050508390509392505050565b610e15610f1b565b84602001518483011115610e3357610e3285600286850102610e8a565b5b60006001836101000a0390508551838682010185831982511617815281518588011115610e605784870182525b505085915050949350505050565b600081831115610e8057829050610e84565b8190505b92915050565b606082600001519050610e9d8383610b09565b50610ea88382610ca2565b50505050565b6040518060a0016040528060008019168152602001600073ffffffffffffffffffffffffffffffffffffffff16815260200160007bffffffffffffffffffffffffffffffffffffffffffffffffffffffff1916815260200160008152602001610f15610f35565b81525090565b604051806040016040528060608152602001600081525090565b60405180604001604052806060815260200160008152509056fe756e61626c6520746f207472616e73666572416e6443616c6c20746f206f7261636c65536f75726365206d75737420626520746865206f7261636c65206f66207468652072657175657374a26469706673582212209edcb51ad21ed120826a15bff7f39d54d6b1733e782c3e309c150a5e4b453dba64736f6c63430006000033",
  "source": "\r\n// ---------------------------------------------------------------------------\r\n// proceso de llamada y recepci칩n de una transacci칩n externa a la blockchain\r\n// ---------------------------------------------------------------------------\r\n\r\n/* \r\n    (1) - Crear proyecto inicial en carpeta clockContract = create a package.json file:\r\n            npm init -y\r\n\r\n\r\n    (2) - Inicializar un proyecto truffle en carpeta clockContract:\r\n            truffle init\r\n\r\n\r\n    (3) - Configurar truffle-config.js\r\n\r\n            - Instalar HDWalletProvider en carpeta clockContract:\r\n                    npm install truffle-hdwallet-provider (*)\r\n                    \r\n                    Alberto Lasa us칩 esta, pero a m칤 me daba error, as칤 que en su lugar us칠 esta anterior de arriba (*) que funciona.\r\n                    npm i truffle-hdwallet-provider-privkey\r\n                    (crea la carpeta node_modules, y dentro de ella entre tantas otras de m칩dulos, crea la subcarpeta truffle-hdwallet-provider-privkey)\r\n\r\n\r\n            - Instalar dotenv\r\n                    npm install dotenv\r\n\r\n                    (crea la subcarpeta dotenv, en la carpeta node_modules)\r\n\r\n                    https://www.npmjs.com/package/dotenv\r\n\r\n                    dotenv = module that loads environment variables from a .env file into process.env\r\n\r\n                    Se utiliza para no definir en este JS las variables que son privadas, sino tomarlas de un archivo .env donde est치n definidas,\r\n                    y donde ese archivo estar칤a oculto y no se subir칤a a internet.\r\n\r\n\r\n            - Crear el archivo .env, que es el que utiliza dotenv, y donde est치n definidas las variables.\r\n\r\n\r\n            - (Opcional) Se puede crear un fichero .gitignore, con el contenido:\r\n                    .env\r\n                    node_modules\r\n              por si se subiera a github el proyecto, para evitar que se subiera al repositorio tanto el fichero .env con las variables privadas, \r\n              como toda la carpeta node_modules que no har칤a falta subir porque se genera con un simple npm install.\r\n\r\n\r\n\r\n            - Escribir el c칩digo en truffle-config.js\r\n\r\n\r\n\r\n    (4) - Este contrato .SOL:\r\n\r\n\r\n*/\r\n\r\npragma solidity ^0.6.0;\r\n\r\n// ----------------------------------------------------------------------------\r\n// ChainlinkClient.sol:\r\n// Este es el contrato que nos va a permitir hacer llamadas request a or치culos.\r\n// ----------------------------------------------------------------------------\r\n\r\n/*  Por defecto ir칤a a buscarlo (쯦ruffle, el compilador, ...?) en la carpeta de node_modules.\r\n    Se instala con NPM:\r\n\r\n    (5) - Instalar ChainlinkClient.sol: \r\n            nmp i @chainlink/contracts\r\n\r\n            Esto nos va a instalar (en la carpeta de node_modules) todos los contratos que han programado la gente de Chainlink (entre ellos ChainlinkClient.sol), \r\n            para que podamos manejarnos en este ecosistema de los or치culos descentralizados.\r\n\r\n            3.bmp \r\n            4.bmp \r\n*/\r\nimport \"@chainlink/contracts/src/v0.6/ChainlinkClient.sol\";\r\n\r\n\r\ncontract Clock is ChainlinkClient {\r\n\r\n    // Este contrato le dice al or치culo: dentro de x segundos haz una transacci칩n a mi address.\r\n    bool public alarmDone;\r\n\r\n    // 3 variables propias del ecosistema Chainlink:\r\n    address private oracle; // Address del or치culo.\r\n    bytes32 private jobId; // El c칩digo del tipo de petici칩n/trabajo que se hace al or치culo. https://market.link/search/jobs?network=42\r\n    uint256 private fee; // Lo que hay que pagar, en LINKS, al or치culo por su servicio.\r\n\r\n    /*  \"Los Adaptadores (en Chainlink) son esas cosas que ejecuta cada tarea.\" \r\n        \"Hay adaptadores dise침ados por Chainlink, pero cada uno puede hacer los suyos.\" \r\n    */\r\n\r\n\r\n    constructor() public {\r\n        /*  \"Poner cu치l es la address del token que gestiona el link. Ese smart contract que lleva todos los balances de las address con los links de cada una\"\r\n            Sets the stored address for the LINK token which is used to send requests to Oracles. There are different token addresses on different network.\r\n            https://docs.chain.link/docs/chainlink-framework#setchainlinktoken \r\n        */\r\n        setChainlinkToken(0xa36085F69e2889c224210F603D836748e7dC0088);\r\n\r\n        // La address del or치culo en la red Kovan.\r\n        oracle = 0x2f90A6D021db21e1B2A077c5a37B3C7E75D15b7e;\r\n\r\n        // El c칩digo del trabajo a ejecutar.\r\n        jobId = \"a7ab70d561d34eb49e9b1612fd2e044b\";\r\n\r\n        // Precio a pagar en LINK.\r\n        fee = 0.1 * 10**18; // 0.1 LINK // Expresarlo en la unidad m칤nima de LINK.\r\n\r\n        alarmDone = false;\r\n    }\r\n\r\n\r\n    // --------------------------------------------------------------------------------------\r\n    // CONSTRUCCI칍N de una PETICI칍N al or치culo de Chainlink\r\n    // --------------------------------------------------------------------------------------\r\n    function requestAlarmClock(uint256 durationInSeconds) public returns(bytes32 requestId) {\r\n        // Chainlink.Request es un struct\r\n\r\n        // Construir una petici칩n a Chainlink.\r\n        Chainlink.Request memory request = buildChainlinkRequest(jobId, // ID del trabajo pedido.\r\n                                                                 address(this), // La address del contrato, a la que el contrato del or치culo mandar치 la transacci칩n: a nuestro contrato.\r\n                                                                 this.fulfillAlarm.selector); // La funci칩n callback de nuestro contrato que recibir치 la transacci칩n.\r\n                                                            \r\n        /*  A침adimos m치s par치metros al objeto request recibido. \r\n            Se le indica el: \"dentro de cu치ntos segundos\"  \r\n            \r\n            addUint\r\n            https://docs.chain.link/docs/chainlink-framework#adduint  \r\n\r\n            \"until\"\r\n            https://docs.chain.link/docs/chainlink-alarm-clock#until\r\n        */\r\n        request.addUint(\"until\", block.timestamp + durationInSeconds); // The timestamp for which the Chainlink node will wait to respond.\r\n\r\n        // Enviar al or치culo la petici칩n de transacci칩n.\r\n        return sendChainlinkRequestTo(oracle, request, fee);\r\n    }\r\n\r\n\r\n    // --------------------------------------------------------------------------------------\r\n    // RECEPCI칍N de la PETICI칍N al or치culo de Chainlink\r\n    // --------------------------------------------------------------------------------------\r\n    /*  Modificador: recordChainlinkFulfillment:\r\n        Used on fulfillment callbacks to ensure that the caller and requestId are valid. This is the modifier equivalent of the method validateChainlinkCallback.\r\n        https://docs.chain.link/docs/chainlink-framework#recordchainlinkfulfillment \r\n    */\r\n    function fulfillAlarm(bytes32 _requestId) public recordChainlinkFulfillment(_requestId) {\r\n        // Transacci칩n recibida.\r\n        alarmDone = true;\r\n    }\r\n\r\n\r\n    // --------------------------------------------------------------------------------------\r\n    // RECUPERACION de tokens LINK\r\n    // --------------------------------------------------------------------------------------\r\n    /*  Recuperar los token LINK que se hab칤an depositado en el contrato de Chainlink,\r\n        porque por ejemplo este contrato en un futuro ya no tenga m치s vigencia. \r\n    */\r\n    function withdrawLink() external {\r\n        // Instanciar el contrato que gestiona el token link.\r\n\r\n        // The chainlinkTokenAddress function is a helper used to return the stored address of the Chainlink token.\r\n        // https://docs.chain.link/docs/chainlink-framework#chainlinktokenaddress\r\n        LinkTokenInterface linkToken = LinkTokenInterface(chainlinkTokenAddress());\r\n\r\n        // Transferir fondos:\r\n        // Todo el balance que tenga este contrato \"linkToken.balanceOf(address(this)))\" en LINKS, env칤aselo al que est치 llamando a esta funci칩n.\r\n        require(linkToken.transfer(msg.sender, linkToken.balanceOf(address(this))), \"Unable to transfer\");\r\n    }\r\n\r\n\r\n}\r\n\r\n\r\n\r\n/*\r\n    (6) - Compilar este contrato Clock.sol:\r\n            truffle compile\r\n\r\n\r\n    (7) - Hacer el deploy de este contrato Clock.sol:\r\n            truffle migrate --reset --network kovan\r\n\r\n\r\n*/ \r\n\r\n\r\n\r\n// minuto 1:01:40\r\n\r\n\r\n\r\n\r\n\r\n\r\n\r\n\r\n",
  "sourcePath": "C:/Users/DAVID/Downloads/NO SALVADO/游땙 Chainlink - Integrar or치culos descentralizados - Ethereum/codigo/clockContract/contracts/Clock.sol",
  "compiler": {
    "name": "solc",
    "version": "0.6.0+commit.26b70077.Emscripten.clang"
  },
  "schemaVersion": "3.3.3",
  "updatedAt": "2021-03-03T19:12:45.893Z",
  "networkType": "ethereum",
  "devdoc": {
    "methods": {}
  },
  "userdoc": {
    "methods": {}
  }
}